{
  "contractName": "SGPA",
  "abi": [
    {
      "constant": false,
      "inputs": [
        {
          "internalType": "uint256",
          "name": "_id",
          "type": "uint256"
        },
        {
          "internalType": "uint256",
          "name": "_credit",
          "type": "uint256"
        },
        {
          "internalType": "string",
          "name": "_grade",
          "type": "string"
        }
      ],
      "name": "setCourse",
      "outputs": [],
      "payable": false,
      "stateMutability": "nonpayable",
      "type": "function"
    },
    {
      "constant": true,
      "inputs": [
        {
          "internalType": "uint256",
          "name": "_i",
          "type": "uint256"
        }
      ],
      "name": "getCourseID",
      "outputs": [
        {
          "internalType": "uint256",
          "name": "",
          "type": "uint256"
        }
      ],
      "payable": false,
      "stateMutability": "view",
      "type": "function"
    },
    {
      "constant": true,
      "inputs": [
        {
          "internalType": "uint256",
          "name": "_i",
          "type": "uint256"
        }
      ],
      "name": "getCredit",
      "outputs": [
        {
          "internalType": "uint256",
          "name": "",
          "type": "uint256"
        }
      ],
      "payable": false,
      "stateMutability": "view",
      "type": "function"
    },
    {
      "constant": true,
      "inputs": [
        {
          "internalType": "uint256",
          "name": "_i",
          "type": "uint256"
        }
      ],
      "name": "getGrade",
      "outputs": [
        {
          "internalType": "string",
          "name": "",
          "type": "string"
        }
      ],
      "payable": false,
      "stateMutability": "view",
      "type": "function"
    },
    {
      "constant": false,
      "inputs": [],
      "name": "calcSGPA",
      "outputs": [],
      "payable": false,
      "stateMutability": "nonpayable",
      "type": "function"
    },
    {
      "constant": true,
      "inputs": [],
      "name": "getSGPA",
      "outputs": [
        {
          "internalType": "uint256",
          "name": "",
          "type": "uint256"
        }
      ],
      "payable": false,
      "stateMutability": "view",
      "type": "function"
    },
    {
      "constant": true,
      "inputs": [
        {
          "internalType": "uint256",
          "name": "_i",
          "type": "uint256"
        }
      ],
      "name": "getGradePoint",
      "outputs": [
        {
          "internalType": "uint256",
          "name": "",
          "type": "uint256"
        }
      ],
      "payable": false,
      "stateMutability": "view",
      "type": "function"
    },
    {
      "constant": true,
      "inputs": [],
      "name": "getGradePoint",
      "outputs": [
        {
          "internalType": "uint256",
          "name": "",
          "type": "uint256"
        }
      ],
      "payable": false,
      "stateMutability": "view",
      "type": "function"
    }
  ],
  "bytecode": "0x60806040526000600155600060025534801561001a57600080fd5b50610b888061002a6000396000f3fe608060405234801561001057600080fd5b50600436106100885760003560e01c8063da304e4d1161005b578063da304e4d146101ea578063e1e0485e1461022c578063ea99f748146102d3578063eb9ccbe8146102f157610088565b80630d2b01901461008d5780634eee91871461015c578063cfcede6214610166578063d05d2a5b146101a8575b600080fd5b61015a600480360360608110156100a357600080fd5b810190808035906020019092919080359060200190929190803590602001906401000000008111156100d457600080fd5b8201836020820111156100e657600080fd5b8035906020019184600183028401116401000000008311171561010857600080fd5b91908080601f016020809104026020016040519081016040528093929190818152602001838380828437600081840152601f19601f82011690508083019250505050505050919291929050505061030f565b005b610164610891565b005b6101926004803603602081101561017c57600080fd5b810190808035906020019092919050505061093d565b6040518082815260200191505060405180910390f35b6101d4600480360360208110156101be57600080fd5b8101908080359060200190929190505050610964565b6040518082815260200191505060405180910390f35b6102166004803603602081101561020057600080fd5b810190808035906020019092919050505061098b565b6040518082815260200191505060405180910390f35b6102586004803603602081101561024257600080fd5b81019080803590602001909291905050506109b2565b6040518080602001828103825283818151815260200191508051906020019080838360005b8381101561029857808201518184015260208101905061027d565b50505050905090810190601f1680156102c55780820380516001836020036101000a031916815260200191505b509250505060405180910390f35b6102db610a72565b6040518082815260200191505060405180910390f35b6102f9610a7c565b6040518082815260200191505060405180910390f35b610317610a86565b838160000181815250508281602001818152505081816040018190525060405160200180807f4500000000000000000000000000000000000000000000000000000000000000815250600101905060405160208183030381529060405280519060200120826040516020018082805190602001908083835b602083106103b2578051825260208201915060208101905060208303925061038f565b6001836020036101000a03801982511681845116808217855250505050505090500191505060405160208183030381529060405280519060200120141561040357600a81606001818152505061081f565b60405160200180807f4100000000000000000000000000000000000000000000000000000000000000815250600101905060405160208183030381529060405280519060200120826040516020018082805190602001908083835b60208310610481578051825260208201915060208101905060208303925061045e565b6001836020036101000a0380198251168184511680821785525050505050509050019150506040516020818303038152906040528051906020012014156104d257600981606001818152505061081e565b60405160200180807f4200000000000000000000000000000000000000000000000000000000000000815250600101905060405160208183030381529060405280519060200120826040516020018082805190602001908083835b60208310610550578051825260208201915060208101905060208303925061052d565b6001836020036101000a0380198251168184511680821785525050505050509050019150506040516020818303038152906040528051906020012014156105a157600881606001818152505061081d565b60405160200180807f4300000000000000000000000000000000000000000000000000000000000000815250600101905060405160208183030381529060405280519060200120826040516020018082805190602001908083835b6020831061061f57805182526020820191506020810190506020830392506105fc565b6001836020036101000a03801982511681845116808217855250505050505090500191505060405160208183030381529060405280519060200120141561067057600781606001818152505061081c565b60405160200180807f4400000000000000000000000000000000000000000000000000000000000000815250600101905060405160208183030381529060405280519060200120826040516020018082805190602001908083835b602083106106ee57805182526020820191506020810190506020830392506106cb565b6001836020036101000a03801982511681845116808217855250505050505090500191505060405160208183030381529060405280519060200120141561073f57600681606001818152505061081b565b60405160200180807f5000000000000000000000000000000000000000000000000000000000000000815250600101905060405160208183030381529060405280519060200120826040516020018082805190602001908083835b602083106107bd578051825260208201915060208101905060208303925061079a565b6001836020036101000a03801982511681845116808217855250505050505090500191505060405160208183030381529060405280519060200120141561080e57600581606001818152505061081a565b60008160600181815250505b5b5b5b5b5b600081908060018154018082558091505090600182039060005260206000209060040201600090919290919091506000820151816000015560208201518160010155604082015181600201908051906020019061087d929190610aae565b506060820151816003015550505050505050565b60008090505b60008054905081101561092357600081815481106108b157fe5b906000526020600020906004020160010154600082815481106108d057fe5b9060005260206000209060040201600301540260015401600181905550600081815481106108fa57fe5b906000526020600020906004020160010154600254016002819055508080600101915050610897565b506002546064600154028161093457fe5b04600381905550565b600080828154811061094b57fe5b9060005260206000209060040201600301549050919050565b600080828154811061097257fe5b9060005260206000209060040201600001549050919050565b600080828154811061099957fe5b9060005260206000209060040201600101549050919050565b6060600082815481106109c157fe5b90600052602060002090600402016002018054600181600116156101000203166002900480601f016020809104026020016040519081016040528092919081815260200182805460018160011615610100020316600290048015610a665780601f10610a3b57610100808354040283529160200191610a66565b820191906000526020600020905b815481529060010190602001808311610a4957829003601f168201915b50505050509050919050565b6000600354905090565b6000600154905090565b6040518060800160405280600081526020016000815260200160608152602001600081525090565b828054600181600116156101000203166002900490600052602060002090601f016020900481019282601f10610aef57805160ff1916838001178555610b1d565b82800160010185558215610b1d579182015b82811115610b1c578251825591602001919060010190610b01565b5b509050610b2a9190610b2e565b5090565b610b5091905b80821115610b4c576000816000905550600101610b34565b5090565b9056fea265627a7a723158208899cd82b16a553dba4fdacb41d5fcea44de51efa3fe0d431907e2346703a05464736f6c63430005100032",
  "source": "pragma solidity >=0.4.22;\n\ncontract SGPA {\n    struct Course{\n        uint id;\n        uint credit;\n        string grade;\n        uint grade_point;\n    }\n\n    Course[] course;\n\n    uint tot_grade_point = 0;\n    uint tot_credit = 0;\n\n    uint sgpa;\n\n\n    function setCourse(uint _id, uint _credit, string memory _grade) public {\n        // course.length++;\n\n        Course memory c;\n\n        c.id = _id;\n        c.credit = _credit;\n        c.grade = _grade;\n        \n        if(keccak256(abi.encodePacked(_grade)) == keccak256(abi.encodePacked(\"E\"))){\n            c.grade_point = 10;\n        } else if(keccak256(abi.encodePacked(_grade)) == keccak256(abi.encodePacked(\"A\"))){\n            c.grade_point = 9;\n        } else if(keccak256(abi.encodePacked(_grade)) == keccak256(abi.encodePacked(\"B\"))){\n            c.grade_point = 8;\n        } else if(keccak256(abi.encodePacked(_grade)) == keccak256(abi.encodePacked(\"C\"))){\n            c.grade_point = 7;\n        } else if(keccak256(abi.encodePacked(_grade)) == keccak256(abi.encodePacked(\"D\"))){\n            c.grade_point = 6;\n        } else if(keccak256(abi.encodePacked(_grade)) == keccak256(abi.encodePacked(\"P\"))){\n            c.grade_point = 5;\n        } else {\n            c.grade_point = 0;\n        }\n        course.push(c);\n    }\n\n\n    function getCourseID(uint _i) public view returns (uint) {\n        return course[_i].id;\n    }\n    function getCredit(uint _i) public view returns(uint) {\n        return course[_i].credit;\n    }\n    function getGrade(uint _i) public view returns(string memory) {\n        return course[_i].grade;\n    }\n    function getGradePoint(uint _i) public view returns(uint) {\n        return course[_i].grade_point;\n    }\n    \n    function calcSGPA() public {\n        for(uint i=0; i < course.length; i++){\n            tot_grade_point = tot_grade_point + course[i].grade_point * course[i].credit;\n            tot_credit = tot_credit + course[i].credit;\n        }\n\n        sgpa = (tot_grade_point * 100) / tot_credit;\n    }  \n\n    function getSGPA() public view returns(uint) {\n        return sgpa;\n    }  \n\n    function getGradePoint() public view returns(uint) {\n        return tot_grade_point;\n    }\n}",
  "sourcePath": "/home/sarthak/KGP Documents/5th Year CS/Advanced Database Systems/Assignments/Assignment7/blockchain/contracts/SGPA.sol",
  "compiler": {
    "name": "solc",
    "version": "0.5.16+commit.9c3226ce.Emscripten.clang"
  },
  "schemaVersion": "3.3.2",
  "updatedAt": "2020-11-20T16:46:27.124Z",
  "networkType": "ethereum",
  "devdoc": {
    "methods": {}
  },
  "userdoc": {
    "methods": {}
  }
}